{
  "contractName": "Multiswap",
  "abi": [
    {
      "inputs": [],
      "stateMutability": "nonpayable",
      "type": "constructor"
    },
    {
      "stateMutability": "payable",
      "type": "fallback"
    },
    {
      "stateMutability": "payable",
      "type": "receive"
    },
    {
      "inputs": [
        {
          "internalType": "address[]",
          "name": "_tokens",
          "type": "address[]"
        },
        {
          "internalType": "uint256[]",
          "name": "_percent",
          "type": "uint256[]"
        },
        {
          "internalType": "uint256[]",
          "name": "_slippage",
          "type": "uint256[]"
        },
        {
          "internalType": "uint256",
          "name": "_total",
          "type": "uint256"
        }
      ],
      "name": "checkOutputsETH",
      "outputs": [
        {
          "internalType": "address[]",
          "name": "",
          "type": "address[]"
        },
        {
          "internalType": "uint256[]",
          "name": "",
          "type": "uint256[]"
        },
        {
          "internalType": "uint256",
          "name": "",
          "type": "uint256"
        }
      ],
      "stateMutability": "view",
      "type": "function"
    },
    {
      "inputs": [
        {
          "internalType": "address[]",
          "name": "_tokens",
          "type": "address[]"
        },
        {
          "internalType": "uint256[]",
          "name": "_percent",
          "type": "uint256[]"
        },
        {
          "internalType": "uint256[]",
          "name": "_slippage",
          "type": "uint256[]"
        },
        {
          "internalType": "address",
          "name": "_base",
          "type": "address"
        },
        {
          "internalType": "uint256",
          "name": "_total",
          "type": "uint256"
        }
      ],
      "name": "checkOutputsToken",
      "outputs": [
        {
          "internalType": "address[]",
          "name": "",
          "type": "address[]"
        },
        {
          "internalType": "uint256[]",
          "name": "",
          "type": "uint256[]"
        }
      ],
      "stateMutability": "view",
      "type": "function"
    },
    {
      "inputs": [
        {
          "internalType": "address",
          "name": "_token",
          "type": "address"
        },
        {
          "internalType": "uint256",
          "name": "_amount",
          "type": "uint256"
        },
        {
          "internalType": "uint256",
          "name": "_slippage",
          "type": "uint256"
        }
      ],
      "name": "checkTokenValueETH",
      "outputs": [
        {
          "internalType": "uint256",
          "name": "",
          "type": "uint256"
        }
      ],
      "stateMutability": "view",
      "type": "function"
    },
    {
      "inputs": [
        {
          "internalType": "address[]",
          "name": "_tokens",
          "type": "address[]"
        },
        {
          "internalType": "uint256[]",
          "name": "_amounts",
          "type": "uint256[]"
        },
        {
          "internalType": "uint256[]",
          "name": "_slippage",
          "type": "uint256[]"
        }
      ],
      "name": "checkAllValue",
      "outputs": [
        {
          "internalType": "uint256",
          "name": "",
          "type": "uint256"
        }
      ],
      "stateMutability": "view",
      "type": "function"
    },
    {
      "inputs": [
        {
          "internalType": "address[]",
          "name": "_tokens",
          "type": "address[]"
        },
        {
          "internalType": "uint256[]",
          "name": "_percent",
          "type": "uint256[]"
        },
        {
          "internalType": "uint256[]",
          "name": "_expected",
          "type": "uint256[]"
        },
        {
          "internalType": "address",
          "name": "_referrer",
          "type": "address"
        }
      ],
      "name": "makeETHSwap",
      "outputs": [
        {
          "internalType": "uint256[]",
          "name": "",
          "type": "uint256[]"
        }
      ],
      "stateMutability": "payable",
      "type": "function"
    },
    {
      "inputs": [
        {
          "internalType": "address[]",
          "name": "_tokens",
          "type": "address[]"
        },
        {
          "internalType": "uint256[]",
          "name": "_percent",
          "type": "uint256[]"
        },
        {
          "internalType": "uint256[]",
          "name": "_expected",
          "type": "uint256[]"
        },
        {
          "internalType": "address",
          "name": "_referrer",
          "type": "address"
        },
        {
          "internalType": "address",
          "name": "_base",
          "type": "address"
        },
        {
          "internalType": "uint256",
          "name": "_total",
          "type": "uint256"
        }
      ],
      "name": "makeTokenSwap",
      "outputs": [
        {
          "internalType": "uint256[]",
          "name": "",
          "type": "uint256[]"
        }
      ],
      "stateMutability": "nonpayable",
      "type": "function"
    },
    {
      "inputs": [
        {
          "internalType": "address[]",
          "name": "_tokens",
          "type": "address[]"
        },
        {
          "internalType": "uint256[]",
          "name": "_amounts",
          "type": "uint256[]"
        },
        {
          "internalType": "uint256[]",
          "name": "_expected",
          "type": "uint256[]"
        },
        {
          "internalType": "address",
          "name": "_referrer",
          "type": "address"
        }
      ],
      "name": "makeTokenSwapForETH",
      "outputs": [
        {
          "internalType": "uint256",
          "name": "",
          "type": "uint256"
        }
      ],
      "stateMutability": "payable",
      "type": "function"
    },
    {
      "inputs": [
        {
          "internalType": "uint16",
          "name": "_newFeeBase",
          "type": "uint16"
        },
        {
          "internalType": "uint16",
          "name": "_newFeeToken",
          "type": "uint16"
        },
        {
          "internalType": "uint16",
          "name": "_newFeeReferral",
          "type": "uint16"
        },
        {
          "internalType": "uint16",
          "name": "_newMaxFee",
          "type": "uint16"
        }
      ],
      "name": "updateFee",
      "outputs": [
        {
          "internalType": "bool",
          "name": "",
          "type": "bool"
        }
      ],
      "stateMutability": "nonpayable",
      "type": "function"
    },
    {
      "inputs": [],
      "name": "getCurrentFee",
      "outputs": [
        {
          "internalType": "uint16",
          "name": "",
          "type": "uint16"
        },
        {
          "internalType": "uint16",
          "name": "",
          "type": "uint16"
        },
        {
          "internalType": "uint16",
          "name": "",
          "type": "uint16"
        },
        {
          "internalType": "uint16",
          "name": "",
          "type": "uint16"
        }
      ],
      "stateMutability": "view",
      "type": "function"
    },
    {
      "inputs": [
        {
          "internalType": "address",
          "name": "_newOwner",
          "type": "address"
        }
      ],
      "name": "transferOwnership",
      "outputs": [
        {
          "internalType": "bool",
          "name": "",
          "type": "bool"
        }
      ],
      "stateMutability": "nonpayable",
      "type": "function"
    },
    {
      "inputs": [],
      "name": "claimOwnership",
      "outputs": [],
      "stateMutability": "nonpayable",
      "type": "function"
    },
    {
      "inputs": [],
      "name": "renounceOwnership",
      "outputs": [],
      "stateMutability": "nonpayable",
      "type": "function"
    },
    {
      "inputs": [
        {
          "internalType": "address",
          "name": "_referrer",
          "type": "address"
        }
      ],
      "name": "addReferrer",
      "outputs": [
        {
          "internalType": "bool",
          "name": "",
          "type": "bool"
        }
      ],
      "stateMutability": "nonpayable",
      "type": "function"
    },
    {
      "inputs": [
        {
          "internalType": "address",
          "name": "_referrer",
          "type": "address"
        }
      ],
      "name": "removeReferrer",
      "outputs": [
        {
          "internalType": "bool",
          "name": "",
          "type": "bool"
        }
      ],
      "stateMutability": "nonpayable",
      "type": "function"
    },
    {
      "inputs": [],
      "name": "getOwner",
      "outputs": [
        {
          "internalType": "address",
          "name": "",
          "type": "address"
        }
      ],
      "stateMutability": "view",
      "type": "function"
    },
    {
      "inputs": [
        {
          "internalType": "address",
          "name": "_referrer",
          "type": "address"
        }
      ],
      "name": "getReferralFees",
      "outputs": [
        {
          "internalType": "uint256",
          "name": "",
          "type": "uint256"
        }
      ],
      "stateMutability": "view",
      "type": "function"
    },
    {
      "inputs": [],
      "name": "retrieveEthFees",
      "outputs": [],
      "stateMutability": "nonpayable",
      "type": "function"
    }
  ],
  "bytecode": "0x60c060405234801561001057600080fd5b50737a250d5630b4cf539739df2c5dacb4c659f2488d73ffffffffffffffffffffffffffffffffffffffff1660a08173ffffffffffffffffffffffffffffffffffffffff1660601b8152505073c02aaa39b223fe8d0a0e5c4f27ead9083c756cc273ffffffffffffffffffffffffffffffffffffffff1660808173ffffffffffffffffffffffffffffffffffffffff1660601b8152505033600360000160006101000a81548173ffffffffffffffffffffffffffffffffffffffff021916908373ffffffffffffffffffffffffffffffffffffffff160217905550601e600360000160146101000a81548161ffff021916908361ffff1602179055506014600360000160166101000a81548161ffff021916908361ffff160217905550611194600360000160186101000a81548161ffff021916908361ffff16021790555060966003600001601a6101000a81548161ffff021916908361ffff16021790555060018060003073ffffffffffffffffffffffffffffffffffffffff1673ffffffffffffffffffffffffffffffffffffffff16815260200190815260200160002060006101000a81548160ff0219169083151502179055506001806000731190074795dad0e61b61270de48e108427f8f81773ffffffffffffffffffffffffffffffffffffffff1673ffffffffffffffffffffffffffffffffffffffff16815260200190815260200160002060006101000a81548160ff02191690831515021790555060805160601c60a05160601c614f046102b1600039600081816108e401528181610d32015281816113230152818161162601528181611dff01528181611ecf0152818161264f0152612c8a0152600081816107d601528181610cc10152818161149001528181611ab8015281816124b90152612bca0152614f046000f3fe6080604052600436106101025760003560e01c8063893d20e811610095578063c6526a8a11610064578063c6526a8a14610366578063f2fde38b14610396578063f70d9362146103d3578063f997e62a14610401578063fefa9bb11461043157610109565b8063893d20e8146102aa57806389f90d7f146102d55780638bdb86d21461031257806391a3cd871461034f57610109565b8063636565ff116100d1578063636565ff146101dc5780636d02b2ad14610219578063715018a6146102565780637a00e2e31461026d57610109565b80631d5cfebf1461010b57806321118d571461014a57806321ad78b3146101875780634e71e0c8146101c557610109565b3661010957005b005b34801561011757600080fd5b50610132600480360381019061012d9190613967565b61046e565b604051610141939291906140df565b60405180910390f35b34801561015657600080fd5b50610171600480360381019061016c91906135d5565b610658565b60405161017e9190614488565b60405180910390f35b34801561019357600080fd5b506101ae60048036038101906101a99190613898565b6106a1565b6040516101bc9291906140a8565b60405180910390f35b3480156101d157600080fd5b506101da610aec565b005b3480156101e857600080fd5b5061020360048036038101906101fe9190613602565b610c21565b6040516102109190614488565b60405180910390f35b34801561022557600080fd5b50610240600480360381019061023b9190613a98565b610e62565b60405161024d9190614146565b60405180910390f35b34801561026257600080fd5b5061026b610f83565b005b34801561027957600080fd5b50610294600480360381019061028f91906135d5565b61109e565b6040516102a19190614146565b60405180910390f35b3480156102b657600080fd5b506102bf611194565b6040516102cc919061402d565b60405180910390f35b3480156102e157600080fd5b506102fc60048036038101906102f791906137b7565b6111c1565b6040516103099190614124565b60405180910390f35b34801561031e57600080fd5b5061033960048036038101906103349190613655565b6117aa565b6040516103469190614488565b60405180910390f35b34801561035b57600080fd5b5061036461183e565b005b610380600480360381019061037b91906136fc565b6119a5565b60405161038d9190614488565b60405180910390f35b3480156103a257600080fd5b506103bd60048036038101906103b891906135d5565b612193565b6040516103ca9190614146565b60405180910390f35b3480156103df57600080fd5b506103e86122e1565b6040516103f89493929190614443565b60405180910390f35b61041b600480360381019061041691906136fc565b612345565b6040516104289190614124565b60405180910390f35b34801561043d57600080fd5b50610458600480360381019061045391906135d5565b6128c1565b6040516104659190614146565b60405180910390f35b606080600085518751146104b7576040517f08c379a00000000000000000000000000000000000000000000000000000000081526004016104ae906143a3565b60405180910390fd5b600080806104c6878b516129b6565b9150915060008a5167ffffffffffffffff8111156104e7576104e661493f565b5b6040519080825280602002602001820160405280156105155781602001602082028036833780820191505090505b50905060005b8b518110156105fd578a818151811061053757610536614910565b5b60200260200101518561054a919061469a565b94506105ca8c828151811061056257610561614910565b5b60200260200101516105aa606461059c8f868151811061058557610584614910565b5b602002602001015189612ab190919063ffffffff16565b612b2c90919063ffffffff16565b8c84815181106105bd576105bc614910565b5b6020026020010151612b76565b508282815181106105de576105dd614910565b5b60200260200101818152505080806105f590614869565b91505061051b565b5060648414610641576040517f08c379a000000000000000000000000000000000000000000000000000000000815260040161063890614303565b60405180910390fd5b8a8183965096509650505050509450945094915050565b6000600260008373ffffffffffffffffffffffffffffffffffffffff1673ffffffffffffffffffffffffffffffffffffffff168152602001908152602001600020549050919050565b60608085518751146106e8576040517f08c379a00000000000000000000000000000000000000000000000000000000081526004016106df906143a3565b60405180910390fd5b600080885167ffffffffffffffff8111156107065761070561493f565b5b6040519080825280602002602001820160405280156107345781602001602082028036833780820191505090505b5090506000600367ffffffffffffffff8111156107545761075361493f565b5b6040519080825280602002602001820160405280156107825781602001602082028036833780820191505090505b509050868160008151811061079a57610799614910565b5b602002602001019073ffffffffffffffffffffffffffffffffffffffff16908173ffffffffffffffffffffffffffffffffffffffff16815250507f00000000000000000000000000000000000000000000000000000000000000008160018151811061080957610808614910565b5b602002602001019073ffffffffffffffffffffffffffffffffffffffff16908173ffffffffffffffffffffffffffffffffffffffff168152505060005b8a51811015610a955789818151811061086257610861614910565b5b602002602001015184610875919061469a565b93508a818151811061088a57610889614910565b5b6020026020010151826002815181106108a6576108a5614910565b5b602002602001019073ffffffffffffffffffffffffffffffffffffffff16908173ffffffffffffffffffffffffffffffffffffffff168152505060007f000000000000000000000000000000000000000000000000000000000000000073ffffffffffffffffffffffffffffffffffffffff1663d06ca61f61095e60646109508f878151811061093957610938614910565b5b60200260200101518d612ab190919063ffffffff16565b612b2c90919063ffffffff16565b856040518363ffffffff1660e01b815260040161097c9291906144a3565b60006040518083038186803b15801561099457600080fd5b505afa1580156109a8573d6000803e3d6000fd5b505050506040513d6000823e3d601f19601f820116820180604052508101906109d19190613a22565b90506000610a5e610a346103e8610a268e87815181106109f4576109f3614910565b5b602002602001015186600281518110610a1057610a0f614910565b5b6020026020010151612ab190919063ffffffff16565b612b2c90919063ffffffff16565b83600281518110610a4857610a47614910565b5b6020026020010151612dbe90919063ffffffff16565b905080858481518110610a7457610a73614910565b5b60200260200101818152505050508080610a8d90614869565b915050610846565b5060648314610ad9576040517f08c379a0000000000000000000000000000000000000000000000000000000008152600401610ad090614283565b60405180910390fd5b8982945094505050509550959350505050565b60008054906101000a900473ffffffffffffffffffffffffffffffffffffffff1673ffffffffffffffffffffffffffffffffffffffff163373ffffffffffffffffffffffffffffffffffffffff1614610b7a576040517f08c379a0000000000000000000000000000000000000000000000000000000008152600401610b7190614243565b60405180910390fd5b60008054906101000a900473ffffffffffffffffffffffffffffffffffffffff16600360000160006101000a81548173ffffffffffffffffffffffffffffffffffffffff021916908373ffffffffffffffffffffffffffffffffffffffff16021790555060008060006101000a81548173ffffffffffffffffffffffffffffffffffffffff021916908373ffffffffffffffffffffffffffffffffffffffff160217905550565b600080600267ffffffffffffffff811115610c3f57610c3e61493f565b5b604051908082528060200260200182016040528015610c6d5781602001602082028036833780820191505090505b5090508481600081518110610c8557610c84614910565b5b602002602001019073ffffffffffffffffffffffffffffffffffffffff16908173ffffffffffffffffffffffffffffffffffffffff16815250507f000000000000000000000000000000000000000000000000000000000000000081600181518110610cf457610cf3614910565b5b602002602001019073ffffffffffffffffffffffffffffffffffffffff16908173ffffffffffffffffffffffffffffffffffffffff168152505060007f000000000000000000000000000000000000000000000000000000000000000073ffffffffffffffffffffffffffffffffffffffff1663d06ca61f86846040518363ffffffff1660e01b8152600401610d8b9291906144a3565b60006040518083038186803b158015610da357600080fd5b505afa158015610db7573d6000803e3d6000fd5b505050506040513d6000823e3d601f19601f82011682018060405250810190610de09190613a22565b90506000610e53610e296103e8610e1b8886600181518110610e0557610e04614910565b5b6020026020010151612ab190919063ffffffff16565b612b2c90919063ffffffff16565b83600181518110610e3d57610e3c614910565b5b6020026020010151612dbe90919063ffffffff16565b90508093505050509392505050565b6000600360000160009054906101000a900473ffffffffffffffffffffffffffffffffffffffff1673ffffffffffffffffffffffffffffffffffffffff163373ffffffffffffffffffffffffffffffffffffffff1614610ef7576040517f08c379a0000000000000000000000000000000000000000000000000000000008152600401610eee906142a3565b60405180910390fd5b84600360000160146101000a81548161ffff021916908361ffff16021790555083600360000160166101000a81548161ffff021916908361ffff16021790555082600360000160186101000a81548161ffff021916908361ffff160217905550816003600001601a6101000a81548161ffff021916908361ffff16021790555060019050949350505050565b600360000160009054906101000a900473ffffffffffffffffffffffffffffffffffffffff1673ffffffffffffffffffffffffffffffffffffffff163373ffffffffffffffffffffffffffffffffffffffff1614611016576040517f08c379a000000000000000000000000000000000000000000000000000000000815260040161100d906142a3565b60405180910390fd5b60008060006101000a81548173ffffffffffffffffffffffffffffffffffffffff021916908373ffffffffffffffffffffffffffffffffffffffff1602179055506000600360000160006101000a81548173ffffffffffffffffffffffffffffffffffffffff021916908373ffffffffffffffffffffffffffffffffffffffff160217905550565b6000600360000160009054906101000a900473ffffffffffffffffffffffffffffffffffffffff1673ffffffffffffffffffffffffffffffffffffffff163373ffffffffffffffffffffffffffffffffffffffff1614611133576040517f08c379a000000000000000000000000000000000000000000000000000000000815260040161112a906142a3565b60405180910390fd5b6000600160008473ffffffffffffffffffffffffffffffffffffffff1673ffffffffffffffffffffffffffffffffffffffff16815260200190815260200160002060006101000a81548160ff02191690831515021790555060019050919050565b6000600360000160009054906101000a900473ffffffffffffffffffffffffffffffffffffffff16905090565b60608373ffffffffffffffffffffffffffffffffffffffff16600073ffffffffffffffffffffffffffffffffffffffff161415611233576040517f08c379a000000000000000000000000000000000000000000000000000000000815260040161122a906142e3565b60405180910390fd5b85518751148015611245575084518651145b611284576040517f08c379a000000000000000000000000000000000000000000000000000000000815260040161127b906142c3565b60405180910390fd5b6000839050600080895167ffffffffffffffff8111156112a7576112a661493f565b5b6040519080825280602002602001820160405280156112d55781602001602082028036833780820191505090505b5090506113053330878673ffffffffffffffffffffffffffffffffffffffff16612e08909392919063ffffffff16565b8273ffffffffffffffffffffffffffffffffffffffff1663095ea7b37f0000000000000000000000000000000000000000000000000000000000000000876040518363ffffffff1660e01b815260040161136092919061407f565b602060405180830381600087803b15801561137a57600080fd5b505af115801561138e573d6000803e3d6000fd5b505050506040513d601f19601f820116820180604052508101906113b29190613a6b565b6113f1576040517f08c379a00000000000000000000000000000000000000000000000000000000081526004016113e8906143e3565b60405180910390fd5b6000600367ffffffffffffffff81111561140e5761140d61493f565b5b60405190808252806020026020018201604052801561143c5781602001602082028036833780820191505090505b509050868160008151811061145457611453614910565b5b602002602001019073ffffffffffffffffffffffffffffffffffffffff16908173ffffffffffffffffffffffffffffffffffffffff16815250507f0000000000000000000000000000000000000000000000000000000000000000816001815181106114c3576114c2614910565b5b602002602001019073ffffffffffffffffffffffffffffffffffffffff16908173ffffffffffffffffffffffffffffffffffffffff168152505060005b8b51811015611755578a818151811061151c5761151b614910565b5b60200260200101518461152f919061469a565b93506064841115611575576040517f08c379a000000000000000000000000000000000000000000000000000000000815260040161156c90614323565b60405180910390fd5b8b818151811061158857611587614910565b5b6020026020010151826002815181106115a4576115a3614910565b5b602002602001019073ffffffffffffffffffffffffffffffffffffffff16908173ffffffffffffffffffffffffffffffffffffffff1681525050600061162060646116128e85815181106115fb576115fa614910565b5b60200260200101518b612ab190919063ffffffff16565b612b2c90919063ffffffff16565b905060007f000000000000000000000000000000000000000000000000000000000000000073ffffffffffffffffffffffffffffffffffffffff166338ed1739838e868151811061167457611673614910565b5b602002602001015187336104b04261168c919061469a565b6040518663ffffffff1660e01b81526004016116ac95949392919061451f565b600060405180830381600087803b1580156116c657600080fd5b505af11580156116da573d6000803e3d6000fd5b505050506040513d6000823e3d601f19601f820116820180604052508101906117039190613a22565b90508060018151811061171957611718614910565b5b602002602001015185848151811061173457611733614910565b5b6020026020010181815250505050808061174d90614869565b915050611500565b5060648314611799576040517f08c379a000000000000000000000000000000000000000000000000000000000815260040161179090614183565b60405180910390fd5b819450505050509695505050505050565b60008060005b8551811015611832576118128682815181106117cf576117ce614910565b5b60200260200101518683815181106117ea576117e9614910565b5b602002602001015186848151811061180557611804614910565b5b6020026020010151610c21565b8261181d919061469a565b9150808061182a90614869565b9150506117b0565b50809150509392505050565b600360000160009054906101000a900473ffffffffffffffffffffffffffffffffffffffff1673ffffffffffffffffffffffffffffffffffffffff163373ffffffffffffffffffffffffffffffffffffffff16146118d1576040517f08c379a00000000000000000000000000000000000000000000000000000000081526004016118c8906142a3565b60405180910390fd5b6000600360000160009054906101000a900473ffffffffffffffffffffffffffffffffffffffff1673ffffffffffffffffffffffffffffffffffffffff164760405161191c90614018565b60006040518083038185875af1925050503d8060008114611959576040519150601f19603f3d011682016040523d82523d6000602084013e61195e565b606091505b50509050806119a2576040517f08c379a0000000000000000000000000000000000000000000000000000000008152600401611999906141a3565b60405180910390fd5b50565b60008173ffffffffffffffffffffffffffffffffffffffff16600073ffffffffffffffffffffffffffffffffffffffff161415611a17576040517f08c379a0000000000000000000000000000000000000000000000000000000008152600401611a0e906142e3565b60405180910390fd5b83518551148015611a29575082518351145b611a68576040517f08c379a0000000000000000000000000000000000000000000000000000000008152600401611a5f906142c3565b60405180910390fd5b6000600267ffffffffffffffff811115611a8557611a8461493f565b5b604051908082528060200260200182016040528015611ab35781602001602082028036833780820191505090505b5090507f000000000000000000000000000000000000000000000000000000000000000081600181518110611aeb57611aea614910565b5b602002602001019073ffffffffffffffffffffffffffffffffffffffff16908173ffffffffffffffffffffffffffffffffffffffff1681525050600047905060005b8751811015611fc257878181518110611b4957611b48614910565b5b602002602001015183600081518110611b6557611b64614910565b5b602002602001019073ffffffffffffffffffffffffffffffffffffffff16908173ffffffffffffffffffffffffffffffffffffffff16815250506000888281518110611bb457611bb3614910565b5b602002602001015190508073ffffffffffffffffffffffffffffffffffffffff166323b872dd33308b8681518110611bef57611bee614910565b5b60200260200101516040518463ffffffff1660e01b8152600401611c1593929190614048565b602060405180830381600087803b158015611c2f57600080fd5b505af1158015611c43573d6000803e3d6000fd5b505050506040513d601f19601f82011682018060405250810190611c679190613a6b565b611ca6576040517f08c379a0000000000000000000000000000000000000000000000000000000008152600401611c9d906141a3565b60405180910390fd5b6000888381518110611cbb57611cba614910565b5b602002602001015190508173ffffffffffffffffffffffffffffffffffffffff166370a08231306040518263ffffffff1660e01b8152600401611cfe919061402d565b60206040518083038186803b158015611d1657600080fd5b505afa158015611d2a573d6000803e3d6000fd5b505050506040513d601f19601f82011682018060405250810190611d4e9190613aff565b811115611de1578173ffffffffffffffffffffffffffffffffffffffff166370a08231306040518263ffffffff1660e01b8152600401611d8e919061402d565b60206040518083038186803b158015611da657600080fd5b505afa158015611dba573d6000803e3d6000fd5b505050506040513d601f19601f82011682018060405250810190611dde9190613aff565b90505b8173ffffffffffffffffffffffffffffffffffffffff1663095ea7b37f0000000000000000000000000000000000000000000000000000000000000000836040518363ffffffff1660e01b8152600401611e3c92919061407f565b602060405180830381600087803b158015611e5657600080fd5b505af1158015611e6a573d6000803e3d6000fd5b505050506040513d601f19601f82011682018060405250810190611e8e9190613a6b565b611ecd576040517f08c379a0000000000000000000000000000000000000000000000000000000008152600401611ec490614423565b60405180910390fd5b7f000000000000000000000000000000000000000000000000000000000000000073ffffffffffffffffffffffffffffffffffffffff166318cbafe5828a8681518110611f1d57611f1c614910565b5b602002602001015188306104b042611f35919061469a565b6040518663ffffffff1660e01b8152600401611f5595949392919061451f565b600060405180830381600087803b158015611f6f57600080fd5b505af1158015611f83573d6000803e3d6000fd5b505050506040513d6000823e3d601f19601f82011682018060405250810190611fac9190613a22565b5050508080611fba90614869565b915050611b2d565b50600080611fe3611fdc8447612dbe90919063ffffffff16565b8a516129b6565b915091503073ffffffffffffffffffffffffffffffffffffffff168673ffffffffffffffffffffffffffffffffffffffff16146120d75760006120268288612e91565b905060008773ffffffffffffffffffffffffffffffffffffffff168260405161204e90614018565b60006040518083038185875af1925050503d806000811461208b576040519150601f19603f3d011682016040523d82523d6000602084013e612090565b606091505b50509050806120d4576040517f08c379a00000000000000000000000000000000000000000000000000000000081526004016120cb90614343565b60405180910390fd5b50505b60003373ffffffffffffffffffffffffffffffffffffffff16836040516120fd90614018565b60006040518083038185875af1925050503d806000811461213a576040519150601f19603f3d011682016040523d82523d6000602084013e61213f565b606091505b5050905080612183576040517f08c379a000000000000000000000000000000000000000000000000000000000815260040161217a906141c3565b60405180910390fd5b8295505050505050949350505050565b6000600360000160009054906101000a900473ffffffffffffffffffffffffffffffffffffffff1673ffffffffffffffffffffffffffffffffffffffff163373ffffffffffffffffffffffffffffffffffffffff1614612228576040517f08c379a000000000000000000000000000000000000000000000000000000000815260040161221f906142a3565b60405180910390fd5b8173ffffffffffffffffffffffffffffffffffffffff16600073ffffffffffffffffffffffffffffffffffffffff161415612298576040517f08c379a000000000000000000000000000000000000000000000000000000000815260040161228f90614203565b60405180910390fd5b816000806101000a81548173ffffffffffffffffffffffffffffffffffffffff021916908373ffffffffffffffffffffffffffffffffffffffff16021790555060019050919050565b600080600080600360000160149054906101000a900461ffff16600360000160169054906101000a900461ffff16600360000160189054906101000a900461ffff166003600001601a9054906101000a900461ffff16935093509350935090919293565b60608173ffffffffffffffffffffffffffffffffffffffff16600073ffffffffffffffffffffffffffffffffffffffff1614156123b7576040517f08c379a00000000000000000000000000000000000000000000000000000000081526004016123ae906142e3565b60405180910390fd5b835185511480156123c9575082518451145b612408576040517f08c379a00000000000000000000000000000000000000000000000000000000081526004016123ff906142c3565b60405180910390fd5b6000806124163488516129b6565b91509150600080885167ffffffffffffffff8111156124385761243761493f565b5b6040519080825280602002602001820160405280156124665781602001602082028036833780820191505090505b5090506000600267ffffffffffffffff8111156124865761248561493f565b5b6040519080825280602002602001820160405280156124b45781602001602082028036833780820191505090505b5090507f0000000000000000000000000000000000000000000000000000000000000000816000815181106124ec576124eb614910565b5b602002602001019073ffffffffffffffffffffffffffffffffffffffff16908173ffffffffffffffffffffffffffffffffffffffff168152505060005b8a5181101561277d5789818151811061254557612544614910565b5b602002602001015184612558919061469a565b9350606484111561259e576040517f08c379a000000000000000000000000000000000000000000000000000000000815260040161259590614403565b60405180910390fd5b8a81815181106125b1576125b0614910565b5b6020026020010151826001815181106125cd576125cc614910565b5b602002602001019073ffffffffffffffffffffffffffffffffffffffff16908173ffffffffffffffffffffffffffffffffffffffff16815250506000612649606461263b8d858151811061262457612623614910565b5b60200260200101518a612ab190919063ffffffff16565b612b2c90919063ffffffff16565b905060007f000000000000000000000000000000000000000000000000000000000000000073ffffffffffffffffffffffffffffffffffffffff16637ff36ab5838d868151811061269d5761269c614910565b5b602002602001015187336104b0426126b5919061469a565b6040518663ffffffff1660e01b81526004016126d494939291906144d3565b6000604051808303818588803b1580156126ed57600080fd5b505af1158015612701573d6000803e3d6000fd5b50505050506040513d6000823e3d601f19601f8201168201806040525081019061272b9190613a22565b90508060018151811061274157612740614910565b5b602002602001015185848151811061275c5761275b614910565b5b6020026020010181815250505050808061277590614869565b915050612529565b50606483146127c1576040517f08c379a00000000000000000000000000000000000000000000000000000000081526004016127b890614183565b60405180910390fd5b3073ffffffffffffffffffffffffffffffffffffffff168773ffffffffffffffffffffffffffffffffffffffff16146128b15760006128008589612e91565b905060008873ffffffffffffffffffffffffffffffffffffffff168260405161282890614018565b60006040518083038185875af1925050503d8060008114612865576040519150601f19603f3d011682016040523d82523d6000602084013e61286a565b606091505b50509050806128ae576040517f08c379a00000000000000000000000000000000000000000000000000000000081526004016128a590614343565b60405180910390fd5b50505b8195505050505050949350505050565b6000600360000160009054906101000a900473ffffffffffffffffffffffffffffffffffffffff1673ffffffffffffffffffffffffffffffffffffffff163373ffffffffffffffffffffffffffffffffffffffff1614612956576040517f08c379a000000000000000000000000000000000000000000000000000000000815260040161294d906142a3565b60405180910390fd5b60018060008473ffffffffffffffffffffffffffffffffffffffff1673ffffffffffffffffffffffffffffffffffffffff16815260200190815260200160002060006101000a81548160ff02191690831515021790555060019050919050565b60008060006129e5600360000160169054906101000a900461ffff1661ffff1685612ab190919063ffffffff16565b9050600360000160169054906101000a900461ffff1661ffff1681612a0a919061477b565b9050600360000160149054906101000a900461ffff1661ffff1681612a2f919061469a565b90506003600001601a9054906101000a900461ffff1661ffff16811115612a6b576003600001601a9054906101000a900461ffff1661ffff1690505b612a92612710612a848388612ab190919063ffffffff16565b612b2c90919063ffffffff16565b9150612aa78286612dbe90919063ffffffff16565b9250509250929050565b600080831415612ac45760009050612b26565b60008284612ad29190614721565b9050828482612ae191906146f0565b14612b21576040517f08c379a0000000000000000000000000000000000000000000000000000000008152600401612b1890614263565b60405180910390fd5b809150505b92915050565b6000612b6e83836040518060400160405280601a81526020017f536166654d6174683a206469766973696f6e206279207a65726f000000000000815250613000565b905092915050565b600060606000600267ffffffffffffffff811115612b9757612b9661493f565b5b604051908082528060200260200182016040528015612bc55781602001602082028036833780820191505090505b5090507f000000000000000000000000000000000000000000000000000000000000000081600081518110612bfd57612bfc614910565b5b602002602001019073ffffffffffffffffffffffffffffffffffffffff16908173ffffffffffffffffffffffffffffffffffffffff16815250508581600181518110612c4c57612c4b614910565b5b602002602001019073ffffffffffffffffffffffffffffffffffffffff16908173ffffffffffffffffffffffffffffffffffffffff168152505060007f000000000000000000000000000000000000000000000000000000000000000073ffffffffffffffffffffffffffffffffffffffff1663d06ca61f87846040518363ffffffff1660e01b8152600401612ce39291906144a3565b60006040518083038186803b158015612cfb57600080fd5b505afa158015612d0f573d6000803e3d6000fd5b505050506040513d6000823e3d601f19601f82011682018060405250810190612d389190613a22565b90506000612dab612d816103e8612d738986600181518110612d5d57612d5c614910565b5b6020026020010151612ab190919063ffffffff16565b612b2c90919063ffffffff16565b83600181518110612d9557612d94614910565b5b6020026020010151612dbe90919063ffffffff16565b9050808394509450505050935093915050565b6000612e0083836040518060400160405280601e81526020017f536166654d6174683a207375627472616374696f6e206f766572666c6f770000815250613063565b905092915050565b612e8b846323b872dd60e01b858585604051602401612e2993929190614048565b604051602081830303815290604052907bffffffffffffffffffffffffffffffffffffffffffffffffffffffff19166020820180517bffffffffffffffffffffffffffffffffffffffffffffffffffffffff83818316178352505050506130c7565b50505050565b6000600160008373ffffffffffffffffffffffffffffffffffffffff1673ffffffffffffffffffffffffffffffffffffffff16815260200190815260200160002060009054906101000a900460ff16612f1f576040517f08c379a0000000000000000000000000000000000000000000000000000000008152600401612f1690614383565b60405180910390fd5b6000612f5f612710612f51600360000160189054906101000a900461ffff1661ffff1687612ab190919063ffffffff16565b612b2c90919063ffffffff16565b9050612fb381600260008673ffffffffffffffffffffffffffffffffffffffff1673ffffffffffffffffffffffffffffffffffffffff1681526020019081526020016000205461318e90919063ffffffff16565b600260008573ffffffffffffffffffffffffffffffffffffffff1673ffffffffffffffffffffffffffffffffffffffff168152602001908152602001600020819055508091505092915050565b60008083118290613047576040517f08c379a000000000000000000000000000000000000000000000000000000000815260040161303e9190614161565b60405180910390fd5b506000838561305691906146f0565b9050809150509392505050565b60008383111582906130ab576040517f08c379a00000000000000000000000000000000000000000000000000000000081526004016130a29190614161565b60405180910390fd5b50600083856130ba919061477b565b9050809150509392505050565b6000613129826040518060400160405280602081526020017f5361666545524332303a206c6f772d6c6576656c2063616c6c206661696c65648152508573ffffffffffffffffffffffffffffffffffffffff166131ec9092919063ffffffff16565b905060008151111561318957808060200190518101906131499190613a6b565b613188576040517f08c379a000000000000000000000000000000000000000000000000000000000815260040161317f906143c3565b60405180910390fd5b5b505050565b600080828461319d919061469a565b9050838110156131e2576040517f08c379a00000000000000000000000000000000000000000000000000000000081526004016131d9906141e3565b60405180910390fd5b8091505092915050565b60606131fb8484600085613204565b90509392505050565b606082471015613249576040517f08c379a000000000000000000000000000000000000000000000000000000000815260040161324090614223565b60405180910390fd5b61325285613318565b613291576040517f08c379a000000000000000000000000000000000000000000000000000000000815260040161328890614363565b60405180910390fd5b6000808673ffffffffffffffffffffffffffffffffffffffff1685876040516132ba9190614001565b60006040518083038185875af1925050503d80600081146132f7576040519150601f19603f3d011682016040523d82523d6000602084013e6132fc565b606091505b509150915061330c82828661332b565b92505050949350505050565b600080823b905060008111915050919050565b6060831561333b5782905061338b565b60008351111561334e5782518084602001fd5b816040517f08c379a00000000000000000000000000000000000000000000000000000000081526004016133829190614161565b60405180910390fd5b9392505050565b60006133a56133a08461459e565b614579565b905080838252602082019050828560208602820111156133c8576133c7614973565b5b60005b858110156133f857816133de88826134e2565b8452602084019350602083019250506001810190506133cb565b5050509392505050565b6000613415613410846145ca565b614579565b9050808382526020820190508285602086028201111561343857613437614973565b5b60005b85811015613468578161344e88826135ab565b84526020840193506020830192505060018101905061343b565b5050509392505050565b6000613485613480846145ca565b614579565b905080838252602082019050828560208602820111156134a8576134a7614973565b5b60005b858110156134d857816134be88826135c0565b8452602084019350602083019250506001810190506134ab565b5050509392505050565b6000813590506134f181614e72565b92915050565b600082601f83011261350c5761350b61496e565b5b813561351c848260208601613392565b91505092915050565b600082601f83011261353a5761353961496e565b5b813561354a848260208601613402565b91505092915050565b600082601f8301126135685761356761496e565b5b8151613578848260208601613472565b91505092915050565b60008151905061359081614e89565b92915050565b6000813590506135a581614ea0565b92915050565b6000813590506135ba81614eb7565b92915050565b6000815190506135cf81614eb7565b92915050565b6000602082840312156135eb576135ea61497d565b5b60006135f9848285016134e2565b91505092915050565b60008060006060848603121561361b5761361a61497d565b5b6000613629868287016134e2565b935050602061363a868287016135ab565b925050604061364b868287016135ab565b9150509250925092565b60008060006060848603121561366e5761366d61497d565b5b600084013567ffffffffffffffff81111561368c5761368b614978565b5b613698868287016134f7565b935050602084013567ffffffffffffffff8111156136b9576136b8614978565b5b6136c586828701613525565b925050604084013567ffffffffffffffff8111156136e6576136e5614978565b5b6136f286828701613525565b9150509250925092565b600080600080608085870312156137165761371561497d565b5b600085013567ffffffffffffffff81111561373457613733614978565b5b613740878288016134f7565b945050602085013567ffffffffffffffff81111561376157613760614978565b5b61376d87828801613525565b935050604085013567ffffffffffffffff81111561378e5761378d614978565b5b61379a87828801613525565b92505060606137ab878288016134e2565b91505092959194509250565b60008060008060008060c087890312156137d4576137d361497d565b5b600087013567ffffffffffffffff8111156137f2576137f1614978565b5b6137fe89828a016134f7565b965050602087013567ffffffffffffffff81111561381f5761381e614978565b5b61382b89828a01613525565b955050604087013567ffffffffffffffff81111561384c5761384b614978565b5b61385889828a01613525565b945050606061386989828a016134e2565b935050608061387a89828a016134e2565b92505060a061388b89828a016135ab565b9150509295509295509295565b600080600080600060a086880312156138b4576138b361497d565b5b600086013567ffffffffffffffff8111156138d2576138d1614978565b5b6138de888289016134f7565b955050602086013567ffffffffffffffff8111156138ff576138fe614978565b5b61390b88828901613525565b945050604086013567ffffffffffffffff81111561392c5761392b614978565b5b61393888828901613525565b9350506060613949888289016134e2565b925050608061395a888289016135ab565b9150509295509295909350565b600080600080608085870312156139815761398061497d565b5b600085013567ffffffffffffffff81111561399f5761399e614978565b5b6139ab878288016134f7565b945050602085013567ffffffffffffffff8111156139cc576139cb614978565b5b6139d887828801613525565b935050604085013567ffffffffffffffff8111156139f9576139f8614978565b5b613a0587828801613525565b9250506060613a16878288016135ab565b91505092959194509250565b600060208284031215613a3857613a3761497d565b5b600082015167ffffffffffffffff811115613a5657613a55614978565b5b613a6284828501613553565b91505092915050565b600060208284031215613a8157613a8061497d565b5b6000613a8f84828501613581565b91505092915050565b60008060008060808587031215613ab257613ab161497d565b5b6000613ac087828801613596565b9450506020613ad187828801613596565b9350506040613ae287828801613596565b9250506060613af387828801613596565b91505092959194509250565b600060208284031215613b1557613b1461497d565b5b6000613b23848285016135c0565b91505092915050565b6000613b388383613b5c565b60208301905092915050565b6000613b508383613fe3565b60208301905092915050565b613b65816147af565b82525050565b613b74816147af565b82525050565b6000613b8582614616565b613b8f818561465c565b9350613b9a836145f6565b8060005b83811015613bcb578151613bb28882613b2c565b9750613bbd83614642565b925050600181019050613b9e565b5085935050505092915050565b6000613be382614621565b613bed818561466d565b9350613bf883614606565b8060005b83811015613c29578151613c108882613b44565b9750613c1b8361464f565b925050600181019050613bfc565b5085935050505092915050565b613c3f816147c1565b82525050565b6000613c508261462c565b613c5a818561467e565b9350613c6a818560208601614805565b80840191505092915050565b6000613c8182614637565b613c8b8185614689565b9350613c9b818560208601614805565b613ca481614982565b840191505092915050565b6000613cbc601a83614689565b9150613cc782614993565b602082019050919050565b6000613cdf601a83614689565b9150613cea826149bc565b602082019050919050565b6000613d02602583614689565b9150613d0d826149e5565b604082019050919050565b6000613d25601b83614689565b9150613d3082614a34565b602082019050919050565b6000613d48602b83614689565b9150613d5382614a5d565b604082019050919050565b6000613d6b602683614689565b9150613d7682614aac565b604082019050919050565b6000613d8e601c83614689565b9150613d9982614afb565b602082019050919050565b6000613db1602183614689565b9150613dbc82614b24565b604082019050919050565b6000613dd4601c83614689565b9150613ddf82614b73565b602082019050919050565b6000613df7600b83614689565b9150613e0282614b9c565b602082019050919050565b6000613e1a601e83614689565b9150613e2582614bc5565b602082019050919050565b6000613e3d602b83614689565b9150613e4882614bee565b604082019050919050565b6000613e60601d83614689565b9150613e6b82614c3d565b602082019050919050565b6000613e83601783614689565b9150613e8e82614c66565b602082019050919050565b6000613ea6602683614689565b9150613eb182614c8f565b604082019050919050565b6000613ec960008361467e565b9150613ed482614cde565b600082019050919050565b6000613eec601d83614689565b9150613ef782614ce1565b602082019050919050565b6000613f0f602483614689565b9150613f1a82614d0a565b604082019050919050565b6000613f32601e83614689565b9150613f3d82614d59565b602082019050919050565b6000613f55602a83614689565b9150613f6082614d82565b604082019050919050565b6000613f78602283614689565b9150613f8382614dd1565b604082019050919050565b6000613f9b601883614689565b9150613fa682614e20565b602082019050919050565b6000613fbe601b83614689565b9150613fc982614e49565b602082019050919050565b613fdd816147cd565b82525050565b613fec816147fb565b82525050565b613ffb816147fb565b82525050565b600061400d8284613c45565b915081905092915050565b600061402382613ebc565b9150819050919050565b60006020820190506140426000830184613b6b565b92915050565b600060608201905061405d6000830186613b6b565b61406a6020830185613b6b565b6140776040830184613ff2565b949350505050565b60006040820190506140946000830185613b6b565b6140a16020830184613ff2565b9392505050565b600060408201905081810360008301526140c28185613b7a565b905081810360208301526140d68184613bd8565b90509392505050565b600060608201905081810360008301526140f98186613b7a565b9050818103602083015261410d8185613bd8565b905061411c6040830184613ff2565b949350505050565b6000602082019050818103600083015261413e8184613bd8565b905092915050565b600060208201905061415b6000830184613c36565b92915050565b6000602082019050818103600083015261417b8184613c76565b905092915050565b6000602082019050818103600083015261419c81613caf565b9050919050565b600060208201905081810360008301526141bc81613cd2565b9050919050565b600060208201905081810360008301526141dc81613cf5565b9050919050565b600060208201905081810360008301526141fc81613d18565b9050919050565b6000602082019050818103600083015261421c81613d3b565b9050919050565b6000602082019050818103600083015261423c81613d5e565b9050919050565b6000602082019050818103600083015261425c81613d81565b9050919050565b6000602082019050818103600083015261427c81613da4565b9050919050565b6000602082019050818103600083015261429c81613dc7565b9050919050565b600060208201905081810360008301526142bc81613dea565b9050919050565b600060208201905081810360008301526142dc81613e0d565b9050919050565b600060208201905081810360008301526142fc81613e30565b9050919050565b6000602082019050818103600083015261431c81613e53565b9050919050565b6000602082019050818103600083015261433c81613e76565b9050919050565b6000602082019050818103600083015261435c81613e99565b9050919050565b6000602082019050818103600083015261437c81613edf565b9050919050565b6000602082019050818103600083015261439c81613f02565b9050919050565b600060208201905081810360008301526143bc81613f25565b9050919050565b600060208201905081810360008301526143dc81613f48565b9050919050565b600060208201905081810360008301526143fc81613f6b565b9050919050565b6000602082019050818103600083015261441c81613f8e565b9050919050565b6000602082019050818103600083015261443c81613fb1565b9050919050565b60006080820190506144586000830187613fd4565b6144656020830186613fd4565b6144726040830185613fd4565b61447f6060830184613fd4565b95945050505050565b600060208201905061449d6000830184613ff2565b92915050565b60006040820190506144b86000830185613ff2565b81810360208301526144ca8184613b7a565b90509392505050565b60006080820190506144e86000830187613ff2565b81810360208301526144fa8186613b7a565b90506145096040830185613b6b565b6145166060830184613ff2565b95945050505050565b600060a0820190506145346000830188613ff2565b6145416020830187613ff2565b81810360408301526145538186613b7a565b90506145626060830185613b6b565b61456f6080830184613ff2565b9695505050505050565b6000614583614594565b905061458f8282614838565b919050565b6000604051905090565b600067ffffffffffffffff8211156145b9576145b861493f565b5b602082029050602081019050919050565b600067ffffffffffffffff8211156145e5576145e461493f565b5b602082029050602081019050919050565b6000819050602082019050919050565b6000819050602082019050919050565b600081519050919050565b600081519050919050565b600081519050919050565b600081519050919050565b6000602082019050919050565b6000602082019050919050565b600082825260208201905092915050565b600082825260208201905092915050565b600081905092915050565b600082825260208201905092915050565b60006146a5826147fb565b91506146b0836147fb565b9250827fffffffffffffffffffffffffffffffffffffffffffffffffffffffffffffffff038211156146e5576146e46148b2565b5b828201905092915050565b60006146fb826147fb565b9150614706836147fb565b925082614716576147156148e1565b5b828204905092915050565b600061472c826147fb565b9150614737836147fb565b9250817fffffffffffffffffffffffffffffffffffffffffffffffffffffffffffffffff04831182151516156147705761476f6148b2565b5b828202905092915050565b6000614786826147fb565b9150614791836147fb565b9250828210156147a4576147a36148b2565b5b828203905092915050565b60006147ba826147db565b9050919050565b60008115159050919050565b600061ffff82169050919050565b600073ffffffffffffffffffffffffffffffffffffffff82169050919050565b6000819050919050565b60005b83811015614823578082015181840152602081019050614808565b83811115614832576000848401525b50505050565b61484182614982565b810181811067ffffffffffffffff821117156148605761485f61493f565b5b80604052505050565b6000614874826147fb565b91507fffffffffffffffffffffffffffffffffffffffffffffffffffffffffffffffff8214156148a7576148a66148b2565b5b600182019050919050565b7f4e487b7100000000000000000000000000000000000000000000000000000000600052601160045260246000fd5b7f4e487b7100000000000000000000000000000000000000000000000000000000600052601260045260246000fd5b7f4e487b7100000000000000000000000000000000000000000000000000000000600052603260045260246000fd5b7f4e487b7100000000000000000000000000000000000000000000000000000000600052604160045260246000fd5b600080fd5b600080fd5b600080fd5b600080fd5b6000601f19601f8301169050919050565b7f4d756c7469737761703a2050657263656e74206e6f7420313030000000000000600082015250565b7f4d756c7469737761703a205472616e73666572206661696c6564000000000000600082015250565b7f4d756c7469737761703a204661696c656420746f2073656e642073776170206f60008201527f7574707574000000000000000000000000000000000000000000000000000000602082015250565b7f536166654d6174683a206164646974696f6e206f766572666c6f770000000000600082015250565b7f4d756c7469737761703a206e65774f776e65722073657420746f20746865207a60008201527f65726f2061646472657373000000000000000000000000000000000000000000602082015250565b7f416464726573733a20696e73756666696369656e742062616c616e636520666f60008201527f722063616c6c0000000000000000000000000000000000000000000000000000602082015250565b7f4d756c7469737761703a206e6f742070656e64696e67206f776e657200000000600082015250565b7f536166654d6174683a206d756c7469706c69636174696f6e206f766572666c6f60008201527f7700000000000000000000000000000000000000000000000000000000000000602082015250565b7f4d756c7469737761703a20706f72746f6c696f206e6f74203130302500000000600082015250565b7f4e6f7420616c6c6f776564000000000000000000000000000000000000000000600082015250565b7f4d756c7469737761703a20496e7075742064617461206d69736d617463680000600082015250565b7f4d756c7469737761703a2072656665727265722063616e6e6f74206265207a6560008201527f726f206164647265737373000000000000000000000000000000000000000000602082015250565b7f4d756c7469737761703a20706f7274666f6c696f206e6f742031303025000000600082015250565b7f4d756c7469737761703a20457863656564656420313030000000000000000000600082015250565b7f4d756c7469737761703a204661696c656420746f2073656e642072656665727260008201527f616c206665650000000000000000000000000000000000000000000000000000602082015250565b50565b7f416464726573733a2063616c6c20746f206e6f6e2d636f6e7472616374000000600082015250565b7f4d756c7469737761703a204e6f74207369676e6564207570206173207265666560008201527f7272657200000000000000000000000000000000000000000000000000000000602082015250565b7f4d756c7469737761703a206d69736d6174636820696e70757420646174610000600082015250565b7f5361666545524332303a204552433230206f7065726174696f6e20646964206e60008201527f6f74207375636365656400000000000000000000000000000000000000000000602082015250565b7f4d756c7469737761703a20556e697377617020617070726f76616c206661696c60008201527f6564000000000000000000000000000000000000000000000000000000000000602082015250565b7f4d756c7469737761703a20457863656564656420313030250000000000000000600082015250565b7f4d756c7469737761703a20417070726f76616c206661696c7572650000000000600082015250565b614e7b816147af565b8114614e8657600080fd5b50565b614e92816147c1565b8114614e9d57600080fd5b50565b614ea9816147cd565b8114614eb457600080fd5b50565b614ec0816147fb565b8114614ecb57600080fd5b5056fea2646970667358221220bea169c6b5239498ae43fcdfffafd321e573edcb6c9d18322b6e9fbd7c3af4d764736f6c63430008070033",
  "immutableReferences": {
    "15": [
      {
        "length": 32,
        "start": 2006
      },
      {
        "length": 32,
        "start": 3265
      },
      {
        "length": 32,
        "start": 5264
      },
      {
        "length": 32,
        "start": 6840
      },
      {
        "length": 32,
        "start": 9401
      },
      {
        "length": 32,
        "start": 11210
      }
    ],
    "18": [
      {
        "length": 32,
        "start": 2276
      },
      {
        "length": 32,
        "start": 3378
      },
      {
        "length": 32,
        "start": 4899
      },
      {
        "length": 32,
        "start": 5670
      },
      {
        "length": 32,
        "start": 7679
      },
      {
        "length": 32,
        "start": 7887
      },
      {
        "length": 32,
        "start": 9807
      },
      {
        "length": 32,
        "start": 11402
      }
    ]
  },
  "source": "// SPDX-License-Identifier: MIT\n\npragma solidity 0.8.7;\n\nimport \"./interfaces/IUniswapV2Router02.sol\";\nimport \"./libraries/SafeMath.sol\";\nimport \"./libraries/SafeERC20.sol\";\n\ncontract Multiswap {\n    using SafeMath for uint256;\n    using SafeERC20 for IERC20;\n\n    // Ownership change pending\n    address private pendingOwner;\n\n    // WETH Address\n    address private immutable WETH;\n\n    // Uniswap Router for swaps\n    IUniswapV2Router02 private immutable uniswapRouter;\n\n    // Referral data\n    mapping (address => bool) private referrers;\n    mapping (address => uint256) private referralFees;\n\n    // Data struct\n    struct ContractData {\n        uint160 owner;\n        uint16 swapFeeBase;\n        uint16 swapFeeToken;\n        uint16 referralFee;\n        uint16 maxFee;\n    }\n    \n    ContractData private data;\n\n    // Modifier for only owner functions\n    modifier onlyOwner {\n        require(msg.sender == address(data.owner), \"Not allowed\");\n        _;\n    }\n\n    /**\n     * @dev Constructor sets values for Uniswap, WETH, and fee data\n     * \n     * These values are the immutable state values for Uniswap and WETH.\n     *\n    */\n    constructor() {\n        uniswapRouter = IUniswapV2Router02(0x7a250d5630B4cF539739dF2C5dAcb4c659F2488D);\n        WETH = address(0xC02aaA39b223FE8D0A0e5C4F27eAD9083C756Cc2);\n        \n        data.owner = uint160(msg.sender);\n        // add extra two digits to percent for accuracy (30 = 0.3)\n        data.swapFeeBase = uint16(30); // 0.3%\n        data.swapFeeToken = uint16(20); // 0.2% per token\n        data.referralFee = uint16(4500); // 45% for referrals\n        data.maxFee = uint16(150); // 1.5% max fee\n\n        // Add standard referrers\n        referrers[address(this)] = true;\n        referrers[address(0x1190074795DAD0E61b61270De48e108427f8f817)] = true;\n    }\n    \n    /**\n     * @dev Enables receiving ETH with no function call\n    */\n    receive() external payable {}\n    fallback() external payable {}\n\n    /**\n     * @dev Checks and returns expected output fom ETH swap.\n    */\n    function checkOutputsETH(\n        address[] memory _tokens,\n        uint256[] memory _percent,\n        uint256[] memory _slippage,\n        uint256 _total\n    ) external view returns (address[] memory, uint256[] memory, uint256)\n    {\n        require(_tokens.length == _percent.length, 'Multiswap: mismatch input data');\n\n        uint256 _totalPercent = 0;\n        (uint256 valueToSend, uint256 feeAmount) = applyFeeETH(_total, _tokens.length);\n\n        uint256[] memory _outputAmount = new uint256[](_tokens.length);\n\n        for (uint256 i = 0; i < _tokens.length; i++) {\n            _totalPercent += _percent[i];\n            (_outputAmount[i],) = calcOutputEth(\n                _tokens[i],\n                valueToSend.mul(_percent[i]).div(100),\n                _slippage[i]\n            );\n        }\n\n        require(_totalPercent == 100, 'Multiswap: portfolio not 100%');\n\n        return (_tokens, _outputAmount, feeAmount);\n    }\n\n    /**\n     * @dev Checks and returns expected output from token swap.\n    */\n    function checkOutputsToken(\n        address[] memory _tokens,\n        uint256[] memory _percent,\n        uint256[] memory _slippage,\n        address _base,\n        uint256 _total\n        ) external view returns (address[] memory, uint256[] memory)\n    {\n        require(_tokens.length == _percent.length, 'Multiswap: mismatch input data');\n        \n        uint256 _totalPercent = 0;\n        uint256[] memory _outputAmount = new uint256[](_tokens.length);\n        address[] memory path = new address[](3);\n        path[0] = _base;\n        path[1] = WETH;\n        \n        for (uint256 i = 0; i < _tokens.length; i++) {\n            _totalPercent += _percent[i];\n            path[2] = _tokens[i];\n            uint256[] memory expected = uniswapRouter.getAmountsOut(_total.mul(_percent[i]).div(100), path);\n            uint256 adjusted = expected[2].sub(expected[2].mul(_slippage[i]).div(1000));\n            _outputAmount[i] = adjusted;\n        }\n        \n        require(_totalPercent == 100, 'Multiswap: portolio not 100%');\n        \n        return (_tokens, _outputAmount);\n    }\n    \n    /**\n     * @dev Checks and returns ETH value of token amount.\n    */\n    function checkTokenValueETH(address _token, uint256 _amount, uint256 _slippage)\n        public\n        view\n        returns (uint256)\n    {\n        address[] memory path = new address[](2);\n        path[0] = _token;\n        path[1] = WETH;\n        uint256[] memory expected = uniswapRouter.getAmountsOut(_amount, path);\n        uint256 adjusted = expected[1].sub(expected[1].mul(_slippage).div(1000));\n        return adjusted;\n    }\n    \n    /**\n     * @dev Checks and returns ETH value of portfolio.\n    */\n    function checkAllValue(address[] memory _tokens, uint256[] memory _amounts, uint256[] memory _slippage)\n        external\n        view\n        returns (uint256)\n    {\n        uint256 totalValue;\n        \n        for (uint i = 0; i < _tokens.length; i++) {\n            totalValue += checkTokenValueETH(_tokens[i], _amounts[i], _slippage[i]);\n        }\n        \n        return totalValue;\n    }\n    \n    /**\n     * @dev Internal function to calculate the output from one ETH swap.\n    */\n    function calcOutputEth(address _token, uint256 _value, uint256 _slippage)\n        internal\n        view\n        returns (uint256, address[] memory)\n    {\n        address[] memory path = new address[](2);\n        path[0] = WETH;\n        path[1] = _token;\n        \n        uint256[] memory expected = uniswapRouter.getAmountsOut(_value, path);\n        uint256 adjusted = expected[1].sub(expected[1].mul(_slippage).div(1000));\n        \n        return (adjusted, path);\n    }\n\n    /**\n     * @dev Internal function to calculate the output from one token swap.\n    */\n    function calcOutputToken(address[] memory _path, uint256 _value)\n        internal\n        view\n        returns (uint256[] memory expected)\n    {\n        \n        expected = uniswapRouter.getAmountsOut(_value, _path);\n        return expected;\n    }\n\n    /**\n     * @dev Execute ETH swap for each token in portfolio.\n    */\n    function makeETHSwap(address[] memory _tokens, uint256[] memory _percent, uint256[] memory _expected, address _referrer)\n        external\n        payable\n        returns (uint256[] memory)\n    {\n        require(address(0) != _referrer, 'Multiswap: referrer cannot be zero addresss');\n        require(_tokens.length == _percent.length && _percent.length == _expected.length, 'Multiswap: Input data mismatch');\n        (uint256 valueToSend, uint256 feeAmount) = applyFeeETH(msg.value, _tokens.length);\n        uint256 totalPercent;\n        uint256[] memory outputs = new uint256[](_tokens.length);\n        address[] memory path = new address[](2);\n        path[0] = WETH;\n\n        for (uint256 i = 0; i < _tokens.length; i++) {\n            totalPercent += _percent[i];\n            require(totalPercent <= 100, 'Multiswap: Exceeded 100%');\n\n            path[1] = _tokens[i];\n\n            uint256 swapVal = valueToSend.mul(_percent[i]).div(100);\n            uint256[] memory out = uniswapRouter.swapExactETHForTokens{value: swapVal}(\n                _expected[i],\n                path,\n                msg.sender,\n                block.timestamp + 1200\n            );\n            outputs[i] = out[1];\n        }\n\n        require(totalPercent == 100, 'Multiswap: Percent not 100');\n        \n        if (_referrer != address(this)) {\n            uint256 referralFee = takeReferralFee(feeAmount, _referrer);\n            (bool sent, ) = _referrer.call{value: referralFee}(\"\");\n            require(sent, 'Multiswap: Failed to send referral fee');\n        }\n        \n        return outputs;\n    }\n\n    /**\n     * @dev Execute token swap for each token in portfolio.\n    */\n    function makeTokenSwap(\n        address[] memory _tokens,\n        uint256[] memory _percent,\n        uint256[] memory _expected,\n        address _referrer,\n        address _base,\n        uint256 _total)\n        external returns (uint256[] memory)\n    {\n        require(address(0) != _referrer, 'Multiswap: referrer cannot be zero addresss');\n        require(_tokens.length == _percent.length && _percent.length == _expected.length, 'Multiswap: Input data mismatch');\n        IERC20 token = IERC20(_base);\n        uint256 totalPercent = 0;\n        uint256[] memory outputs = new uint256[](_tokens.length);\n\n        token.safeTransferFrom(msg.sender, address(this), _total);\n\n        require(token.approve(address(uniswapRouter), _total), 'Multiswap: Uniswap approval failed');\n        \n        address[] memory path = new address[](3);\n        path[0] = _base;\n        path[1] = WETH;\n        \n        for (uint256 i = 0; i < _tokens.length; i++) {\n            totalPercent += _percent[i];\n\n            require(totalPercent <= 100, 'Multiswap: Exceeded 100');\n            \n            path[2] = _tokens[i];            \n            uint256 swapVal = _total.mul(_percent[i]).div(100);\n\n            uint256[] memory out = uniswapRouter.swapExactTokensForTokens(\n                swapVal,\n                _expected[i],\n                path,\n                msg.sender,\n                block.timestamp + 1200\n            );\n            \n            outputs[i] = out[1];\n        }\n\n        require(totalPercent == 100, 'Multiswap: Percent not 100');\n        \n        return outputs;\n    }\n    \n    /**\n     * @dev Swap tokens for ETH\n    */\n    function makeTokenSwapForETH(\n        address[] memory _tokens,\n        uint256[] memory _amounts,\n        uint256[] memory _expected,\n        address _referrer\n    ) external payable returns (uint256)\n    {\n        require(address(0) != _referrer, 'Multiswap: referrer cannot be zero addresss');\n        require(_tokens.length == _amounts.length && _expected.length == _expected.length, 'Multiswap: Input data mismatch');\n        address[] memory path = new address[](2);\n        path[1] = WETH;\n        uint256 preBalance = address(this).balance;\n        \n        for (uint i = 0; i < _tokens.length; i++) {\n            path[0] = _tokens[i];\n            IERC20 token = IERC20(_tokens[i]);\n            require(token.transferFrom(msg.sender, address(this), _amounts[i]), 'Multiswap: Transfer failed');\n            uint256 transferAmount = _amounts[i];\n            if (transferAmount > token.balanceOf(address(this))) transferAmount = token.balanceOf(address(this));\n            require(token.approve(address(uniswapRouter), transferAmount), 'Multiswap: Approval failure');\n            uniswapRouter.swapExactTokensForETH(transferAmount, _expected[i], path, address(this), block.timestamp + 1200);\n        }\n\n        (uint256 valueToSend, uint256 feeAmount) = applyFeeETH(address(this).balance.sub(preBalance), _tokens.length);\n\n        if (_referrer != address(this)) {\n            uint256 referralFee = takeReferralFee(feeAmount, _referrer);\n            (bool sent, ) = _referrer.call{value: referralFee}(\"\");\n            require(sent, 'Multiswap: Failed to send referral fee');\n        }\n        \n       (bool delivered, ) = msg.sender.call{value: valueToSend}(\"\");\n       require(delivered, 'Multiswap: Failed to send swap output');\n        \n        return valueToSend;\n    }\n\n    /**\n     * @dev Apply fee to total value amount for ETH swap.\n    */\n    function applyFeeETH(uint256 _amount, uint256 _numberOfTokens)\n        private\n        view\n        returns (uint256 valueToSend, uint256 feeAmount)\n    {\n        uint256 feePercent = _numberOfTokens.mul(data.swapFeeToken);\n        feePercent -= data.swapFeeToken;\n        feePercent += data.swapFeeBase;\n\n        if (feePercent > data.maxFee) {\n            feePercent = data.maxFee;\n        }\n\n        feeAmount = _amount.mul(feePercent).div(10000);\n        valueToSend = _amount.sub(feeAmount);\n\n        return (valueToSend, feeAmount);\n    }\n\n    /**\n     * @dev Take referral fee and distribute\n    */\n    function takeReferralFee(uint256 _fee, address _referrer) internal returns (uint256) {\n        require(referrers[_referrer], 'Multiswap: Not signed up as referrer');\n        uint256 referralFee = _fee.mul(data.referralFee).div(10000);\n        referralFees[_referrer] = referralFees[_referrer].add(referralFee);\n        \n        return referralFee;\n    }\n\n    /**\n     * @dev Owner only function to update contract fees.\n    */\n    function updateFee(\n        uint16 _newFeeBase,\n        uint16 _newFeeToken,\n        uint16 _newFeeReferral,\n        uint16 _newMaxFee\n    ) external onlyOwner returns (bool) {\n        data.swapFeeBase = _newFeeBase;\n        data.swapFeeToken = _newFeeToken;\n        data.referralFee = _newFeeReferral;\n        data.maxFee = _newMaxFee;\n        \n        return true;\n    }\n\n    /**\n     * @dev Returns current app fees.\n    */\n    function getCurrentFee()\n        external\n        view\n        returns (\n            uint16,\n            uint16,\n            uint16,\n            uint16\n        )\n    {\n        return (data.swapFeeBase, data.swapFeeToken, data.referralFee, data.maxFee);\n    }\n\n    /**\n     * @dev Owner only function to change contract owner.\n    */\n    function transferOwnership(address _newOwner) external onlyOwner returns (bool) {\n        require(address(0) != _newOwner, \"Multiswap: newOwner set to the zero address\");\n        pendingOwner = _newOwner;\n        return true;\n    }\n\n    /**\n     * @dev Function to claim ownership as pending owner.\n    */\n    function claimOwnership() external {\n        require(msg.sender == pendingOwner, 'Multiswap: not pending owner');\n        data.owner = uint160(pendingOwner);\n        pendingOwner = address(0);\n    }\n\n    /**\n     * @dev Owner only function to renounce ownership.\n    */\n    function renounceOwnership() external onlyOwner {\n        pendingOwner = address(0);\n        data.owner = uint160(0);\n    }\n\n    /**\n     * @dev Owner only function to change contract owner.\n    */\n    function addReferrer(address _referrer) external onlyOwner returns (bool) {\n        referrers[_referrer] = true;\n        return true;\n    }\n\n    /**\n     * @dev Owner only function to change contract owner.\n    */\n    function removeReferrer(address _referrer) external onlyOwner returns (bool) {\n        referrers[_referrer] = false;\n        return true;\n    }\n\n    /**\n     * @dev Return owner address\n    */\n    function getOwner() external view returns (address) {\n        return address(data.owner);\n    }\n    \n    /**\n     * @dev Function to see referral balancees\n    */\n    function getReferralFees(address _referrer) external view returns (uint256) {\n        return referralFees[_referrer];\n    }\n\n    /**\n     * @dev Owner only function to retreive ETH fees\n    */\n    function retrieveEthFees() external onlyOwner {\n        (bool sent, ) = address(data.owner).call{value: address(this).balance}(\"\");\n        require(sent, 'Multiswap: Transfer failed');\n    }\n\n}",
  "sourcePath": "/Users/dperk6/eth/swap-contract-final/contracts/Multiswap.sol",
  "compiler": {
    "name": "solc",
    "version": "0.8.7+commit.e28d00a7.Emscripten.clang"
  },
  "schemaVersion": "3.4.1",
  "updatedAt": "2021-09-02T22:52:16.186Z",
  "devdoc": {
    "kind": "dev",
    "methods": {
      "addReferrer(address)": {
        "details": "Owner only function to change contract owner."
      },
      "checkAllValue(address[],uint256[],uint256[])": {
        "details": "Checks and returns ETH value of portfolio."
      },
      "checkOutputsETH(address[],uint256[],uint256[],uint256)": {
        "details": "Checks and returns expected output fom ETH swap."
      },
      "checkOutputsToken(address[],uint256[],uint256[],address,uint256)": {
        "details": "Checks and returns expected output from token swap."
      },
      "checkTokenValueETH(address,uint256,uint256)": {
        "details": "Checks and returns ETH value of token amount."
      },
      "claimOwnership()": {
        "details": "Function to claim ownership as pending owner."
      },
      "constructor": {
        "details": "Constructor sets values for Uniswap, WETH, and fee data  These values are the immutable state values for Uniswap and WETH."
      },
      "getCurrentFee()": {
        "details": "Returns current app fees."
      },
      "getOwner()": {
        "details": "Return owner address"
      },
      "getReferralFees(address)": {
        "details": "Function to see referral balancees"
      },
      "makeETHSwap(address[],uint256[],uint256[],address)": {
        "details": "Execute ETH swap for each token in portfolio."
      },
      "makeTokenSwap(address[],uint256[],uint256[],address,address,uint256)": {
        "details": "Execute token swap for each token in portfolio."
      },
      "makeTokenSwapForETH(address[],uint256[],uint256[],address)": {
        "details": "Swap tokens for ETH"
      },
      "removeReferrer(address)": {
        "details": "Owner only function to change contract owner."
      },
      "renounceOwnership()": {
        "details": "Owner only function to renounce ownership."
      },
      "retrieveEthFees()": {
        "details": "Owner only function to retreive ETH fees"
      },
      "transferOwnership(address)": {
        "details": "Owner only function to change contract owner."
      },
      "updateFee(uint16,uint16,uint16,uint16)": {
        "details": "Owner only function to update contract fees."
      }
    },
    "version": 1
  },
  "userdoc": {
    "kind": "user",
    "methods": {},
    "version": 1
  }
}